:1000000045C00000A3C000005EC000005CC000004E
:100010005AC0000058C0000056C0000054C0000084
:1000200052C0000050C000004AC200004CC0000096
:100030004AC0000048C0000046C0000044C00000A4
:100040001EC2000040C000003EC000003CC00000D6
:100050003AC0000038C0000036C0000034C00000C4
:1000600032C0000030C000002EC000002CC00000D4
:100070002AC0000028C0000026C0000024C00000E4
:1000800022C0000020C000001EC0000011241FBEBE
:10009000CFEFD0E1DEBFCDBF11E0A0E0B1E0EEECEC
:1000A000F5E000E00BBF02C007900D92AA30B10747
:1000B000D9F721E0AAE0B1E001C01D92A032B20759
:1000C000E1F7F9D082C29CCF81E080930C011092BD
:1000D0000B0110920A01089580910C01813041F4C6
:1000E00080E032D210920C0110920B0110920A01A2
:1000F000089581E080930C01089580910C01811195
:1001000011C080910A0190910B01019690930B010F
:1001100080930A018837910529F410920B011092FF
:100120000A01E7CF089590910C0181E0913009F028
:1001300080E00895019731F480910C01813021F421
:1001400080E5089580E0089581E208951F920F925E
:100150000FB60F9211240BB60F922F933F934F932C
:100160005F936F937F938F939F93AF93BF93EF931F
:10017000FF9380910D0181110EC0809B06C0EAE6BD
:10018000F0E080811082A8DF06C0EAE6F0E080811E
:1001900081608083AEDFFF91EF91BF91AF919F911E
:1001A0008F917F916F915F914F913F912F910F9020
:1001B0000BBE0F900FBE0F901F9018951F93CF93FB
:1001C000DF93C0E0D0E0C430D105CCF4CE01B2DF83
:1001D000182FCE0144D1812B21E030E00C2E02C03B
:1001E000220F331F0A94E2F7209525BB8BBB8FE3C8
:1001F0009FE10197F1F700C000002196E4CFDF9165
:10020000CF911F91089521E030E002C0220F331FEB
:100210006A95E2F7209525BB80509F4FFC018081B5
:100220008BBB08950F931F93CF93DF9300D000D023
:10023000CDB7DEB7FC0164E670E0A0D12AE030E083
:10024000B9019CD17A836983CF01B90197D19C838D
:100250008B8300E010E002301105C4F4B8016E5F3A
:100260007F4FF801EE0FFF1F81E090E08C0F9D1F84
:10027000E80FF91F80819181C6DF8FE39FE101972D
:10028000F1F700C000000F5F1F4FE5CF0F900F90F8
:100290000F900F90DF91CF911F910F910895809152
:1002A0000D01811102C08ACF0895809110019091B3
:1002B0001101B8CF08958FEF84BB8ABB15BA83E0D4
:1002C00080936A0081E089BF8FB780688FBF1092EA
:1002D0000D0129D1F9DE10D081E036D180910D01D8
:1002E000811108C00ADF7DD0B7D0882319F081E0E2
:1002F00080930D01D4DFF2CF83E090E0909317015B
:100300008093160110920F011092150110921401A2
:1003100010921901109218011092130110921201FB
:10032000109211011092100110920E010895809107
:100330000F01811111C081E080930F0183E090E0F3
:1003400090931701809316011092150110921401D9
:100350001092130110921201089510920F018091D2
:100360001801909119010896909319018093180132
:100370008091100190911101019690931101809349
:1003800010010A9721F481E080930E01DDC00895E9
:10039000CADE882349F020911601309117012130DF
:1003A000310519F080E001C080E0882321F081E070
:1003B00080930E01C9C00895809116019091170194
:1003C000019709F4E5DF80911601909117010097DC
:1003D00011F4C3CF089501979093170180931601EC
:1003E000089580910F018823D1F08091140190919C
:1003F0001501019690931501809314014091180105
:100400005091190124E630E0241B350B8217930725
:1004100011F51092150110921401CECF089520917C
:100420001201309113012F5F3F4F3093130120933E
:100430001201409118015091190184E690E0841B4B
:10044000950B880F991F2817390729F4109213016B
:10045000109212016CCF089580910E0108952091A1
:100460001601309117012817390729F480910F01DF
:10047000811103C0089580E008958CE808951F92CB
:100480000F920FB60F9211240BB60F928F93EF932A
:10049000FF9380911F0182BF80911A01882329F068
:1004A000E2E6F0E0808180588083FF91EF918F91A8
:1004B0000F900BBE0F900FBE0F901F9018951F92BC
:1004C0000F920FB60F9211242F938F939F938091C9
:1004D0001B0190911C01019690931C0180931B01BC
:1004E0000F97C9F410921C0110921B0180911D01FD
:1004F00090911E01009749F420E120931F0101967D
:1005000090931E0180931D0106C010921A01109253
:100510001E0110921D019F918F912F910F900FBE80
:100520000F901F90189580E88093610084E083BF4E
:1005300085BD81E487BF10921F0110921A011092AD
:100540001E0110921D010895882319F0813059F081
:1005500011C081E090E090931E0180931D0180E125
:1005600080931F0107C010921E0110921D0188E8A0
:1005700080931F0181E080931A01089597FB072E55
:1005800016F4009406D077FD08D00BD007FC05D0F8
:100590003EF4909581959F4F0895709561957F4F9A
:1005A0000895AA1BBB1B51E107C0AA1FBB1FA617BA
:1005B000B70710F0A61BB70B881F991F5A95A9F70C
:0E05C00080959095BC01CD010895F894FFCF71
:0A05CE003F065B4F666D7D277F6FCF
:00000001FF
